:020000040800F2
:1000000000000220110A00080D0A0008494B0008F0
:100010000D0A00080D0A00080D0A00080000000083
:100020000000000000000000000000000D0A0008B1
:100030000D0A0008000000000D0A0008CD4A000863
:100040000D0A00080D0A00080D0A00080D0A000834
:100050000D0A00080D0A00080D0A00080D0A000824
:100060000D0A00080D0A00080D0A000801370008F3
:100070000D3700080D0A0008193700082537000859
:1000800081450008312C00080D0A00080D0A0008FF
:100090000D0A00080D0A00080D0A00080D0A0008E4
:1000A0000D0A00080D0A00080D0A00080D0A0008D4
:1000B00085040108910401089D040108652C0008CD
:1000C0000D0A0008712C00080D0A0008F5FC000854
:1000D00001FD0008B5430008E1430008154400088D
:1000E0000D0A00080D0A0008000000000D0A0008B3
:1000F0000D0A00080D0A00080D0A00080D0A000884
:100100000D0A00080D0A0008A90401080DFD0008E9
:10011000494400087D4400080D0A00080D0A000843
:100120000D0A00080D0A000831FD000865FD0008F1
:10013000B54500080D0A00080D0A00080D0A000860
:1001400000000000000000000000000000000000AF
:100150000D0A00080D0A00080D0A0008B144000845
:100160007D2C00080D0A0008DD4A0008014B00083C
:100170000D0A0008254B00080D0A00080D0A0008AA
:100180000D0A00080D0A0008E5440008194500089A
:1001900019FD000825FD00080D0A00080D0A0008D9
:1001A0000D0A00080D0A00080D0A00080D0A0008D3
:1001B000213400080D0A00080D0A00080D0A000885
:1001C0000D0A00080D0A0008B5250008C125000821
:1001D0000D0A0008CD2500080D0A00080D0A0008C8
:1001E0000D0A00080D0A00080D0A00080D0A000893
:1001F0000D0A00080D0A00080D0A00080D0A000883
:100200000D0A00080D0A00080D0A00080D0A000872
:100210000D0A00080D0A00080D0A00080D0A000862
:100220000D0A00080D0A00080D0A00080000000071
:100230000D0A00080D0A0008000000000D0A000861
:100240000D0A00080D0A00080D0A00080D0A000832
:100250000D0A00080D0A00080D0A00080D0A000822
:100260000D0A00080D0A00080D0A00080D0A000812
:100270000D0A00080D0A00084D45000800000000A6
:100280000D0A00080D0A00080D0A00080000000011
:08029000000000000D0A000847
:1002A00010B5054C237833B9044B13B10448AFF3B0
:1002B00000800123237010BD080600240000000008
:1002C0008440010808B5034B1BB103490348AFF351
:1002D000008008BD000000000C06002484400108D6
:1002E000034613F8012B002AFBD1181A0138704776
:1002F00001F0FF01102A2BDB10F0070F08D010F8D7
:10030000013B013A8B422DD010F0070F42B3F6D1DA
:10031000F0B441EA012141EA014122F007047FF0F3
:1003200000070023F0E80256083C85EA010586EA4A
:10033000010685FA47F5A3FA87F586FA47F6A5FA86
:1003400087F68EB9EED1F0BC01F0FF0102F0070292
:1003500032B110F8013B013A83EA010313B1F8D13D
:100360000020704701387047002D06BF354603381E
:10037000073815F0010F07D1013015F4807F02BF57
:10038000013015F4C03F0130F0BC0138704700BFA8
:1003900081F0004102E000BF83F0004330B54FEA36
:1003A00041044FEA430594EA050F08BF90EA020FA3
:1003B0001FBF54EA000C55EA020C7FEA645C7FEA36
:1003C000655C00F0E2804FEA5454D4EB5555B8BF59
:1003D0006D420CDD2C4480EA020281EA030382EACA
:1003E000000083EA010180EA020281EA0303362D5C
:1003F00088BF30BD11F0004F4FEA01314FF4801C2F
:100400004CEA113102D0404261EB410113F0004F40
:100410004FEA03334CEA133302D0524263EB4303F7
:1004200094EA050F00F0A780A4F10104D5F1200E95
:100430000DDB02FA0EFC22FA05F2801841F10001F0
:1004400003FA0EF2801843FA05F359410EE0A5F1C4
:1004500020050EF1200E012A03FA0EFC28BF4CF0F5
:10046000020C43FA05F3C01851EBE37101F00045AB
:1004700007D54FF0000EDCF1000C7EEB00006EEBB8
:100480000101B1F5801F1BD3B1F5001F0CD3490842
:100490005FEA30004FEA3C0C04F101044FEA445299
:1004A00012F5800F80F09A80BCF1004F08BF5FEA20
:1004B000500C50F1000041EB045141EA050130BD00
:1004C0005FEA4C0C404141EB0101013C28BFB1F512
:1004D000801FE9D291F0000F04BF01460020B1FA5D
:1004E00081F308BF2033A3F10B03B3F120020CDA30
:1004F0000C3208DD02F1140CC2F10C0201FA0CF00E
:1005000021FA02F10CE002F11402D8BFC2F1200C72
:1005100001FA02F120FA0CFCDCBF41EA0C01904028
:10052000E41AA2BF01EB0451294330BD6FEA040471
:100530001F3C1CDA0C340EDC04F11404C4F120025C
:1005400020FA04F001FA02F340EA030021FA04F36E
:1005500045EA030130BDC4F10C04C4F1200220FAC5
:1005600002F001FA04F340EA0300294630BD21FA03
:1005700004F0294630BD94F0000F83F4801306BFC9
:1005800081F480110134013D4EE77FEA645C18BFBD
:100590007FEA655C29D094EA050F08BF90EA020F54
:1005A00005D054EA000C04BF1946104630BD91EA4C
:1005B000030F1EBF0021002030BD5FEA545C05D14F
:1005C0004000494128BF41F0004130BD14F580048E
:1005D0003CBF01F5801130BD01F0004545F0FE4102
:1005E00041F470014FF0000030BD7FEA645C1ABF37
:1005F000194610467FEA655C1CBF0B46024650EA6E
:10060000013406BF52EA033591EA030F41F4002199
:1006100030BD00BF90F0000F04BF0021704730B51F
:100620004FF4806404F132044FF000054FF00001F4
:1006300050E700BF90F0000F04BF0021704730B5B5
:100640004FF4806404F1320410F0004548BF40428A
:100650004FF000013EE700BF42004FEAE2014FEADF
:1006600031014FEA02701FBF12F07F4393F07F4FBA
:1006700081F06051704732F07F4208BF704793F0BD
:100680007F4F04BF41F40021704730B54FF46074D0
:1006900001F0004521F000411CE700BF50EA0102D3
:1006A00008BF704730B54FF000050AE050EA01027C
:1006B00008BF704730B511F0004502D5404261EBEC
:1006C00041014FF4806404F132045FEA915C3FF42D
:1006D000D8AE4FF003025FEADC0C18BF03325FEACA
:1006E000DC0C18BF033202EBDC02C2F1200300FA7B
:1006F00003FC20FA02F001FA03FE40EA0E0021FAA0
:1007000002F11444BDE600BF53B94AB9002908BF3D
:1007100000281CBF4FF0FF314FF0FF3000F074B9DC
:10072000ADF1080C6DE904CE00F006F8DDF804E048
:10073000DDE9022304B070472DE9F047089D044627
:100740008E46002B4DD18A42944669D9B2FA82F284
:1007500052B101FA02F3C2F1200120FA01F10CFAC0
:1007600002FC41EA030E94404FEA1C48210CBEFBF8
:10077000F8F61FFA8CF708FB16E341EA034306FB81
:1007800007F199420AD91CEB030306F1FF3080F010
:100790001F81994240F21C81023E63445B1AA4B25D
:1007A000B3FBF8F008FB103344EA034400FB07F7FF
:1007B000A7420AD91CEB040400F1FF3380F00A8140
:1007C000A74240F207816444023840EA0640E41B35
:1007D00000261DB1D4400023C5E900433146BDE8E1
:1007E000F0878B4209D9002D00F0EF800026C5E983
:1007F000000130463146BDE8F087B3FA83F6002E9B
:100800004AD18B4202D3824200F2F980841A61EB12
:10081000030301209E46002DE0D0C5E9004EDDE730
:1008200002B9FFDEB2FA82F2002A40F09280A1EB18
:100830000C014FEA1C471FFA8CFE0126200CB1FB6D
:10084000F7F307FB131140EA01410EFB03F0884266
:1008500008D91CEB010103F1FF3802D2884200F2F3
:10086000CB804346091AA4B2B1FBF7F007FB101185
:1008700044EA01440EFB00FEA64508D91CEB040423
:1008800000F1FF3102D2A64500F2BB800846A4EB7E
:100890000E0440EA03409CE7C6F12007B34022FA69
:1008A00007FC4CEA030C20FA07F401FA06F31C4398
:1008B000F9404FEA1C4900FA06F3B1FBF9F8200CA5
:1008C0001FFA8CFE09FB181140EA014108FB0EF0EB
:1008D000884202FA06F20BD91CEB010108F1FF3A3B
:1008E00080F08880884240F28580A8F10208614447
:1008F000091AA4B2B1FBF9F009FB101144EA014155
:1009000000FB0EFE8E4508D91CEB010100F1FF34FF
:100910006CD28E456AD90238614440EA0840A0FB97
:100920000294A1EB0E01A142C846A64656D353D06D
:100930005DB1B3EB080261EB0E0101FA07F722FA91
:1009400006F3F1401F43C5E9007100263146BDE8BA
:10095000F087C2F12003D8400CFA02FC21FA03F31D
:10096000914001434FEA1C471FFA8CFEB3FBF7F09E
:1009700007FB10360B0C43EA064300FB0EF69E42C3
:1009800004FA02F408D91CEB030300F1FF382FD25C
:100990009E422DD9023863449B1B89B2B3FBF7F604
:1009A00007FB163341EA034106FB0EF38B4208D9DD
:1009B0001CEB010106F1FF3816D28B4214D9023E1E
:1009C0006144C91A46EA004638E72E46284605E73C
:1009D0000646E3E61846F8E64B45A9D2B9EB02080D
:1009E00064EB0C0E0138A3E74646EAE7204694E79D
:1009F0004046D1E7D0467BE7023B614432E73046D0
:100A000009E76444023842E7704700BFFEE700BFD1
:100A10000B480C4A904203D0121A0B4911F046F9C8
:100A20000A480B4A904203D0121A002111F04CF9E7
:100A300004F0E0FA11F00EF900F01EF9FEE700BF35
:100A40000000002408060024B8400108080600241D
:100A5000345E0024704700BF704700BF22B3013AE4
:100A60002DE9F0410E460027104D4FEA52082DEDBA
:100A7000028B0F4C9FED0F8A20462C3410F0E4FDC2
:100A800038EE008AAC42F7D1474586ED008A86ED04
:100A9000018A07F1010306F1080601D01F46E8E7C5
:100AA000BDEC028BBDE8F081704700BF6C070024ED
:100AB000640600240000000010B5012188B00B4A34
:100AC0004FF4E13403910023069111880794022426
:100AD0009288ADF8061001A9049302930594ADF82D
:100AE000042003F01DFE08B010BD00BF283A010825
:100AF00010B5002382B004468DF807300A23012286
:100B00000DF10701204603F075FE0028F6D002B073
:100B100010BD00BFF0B5002383B005460E468DF82A
:100B20000730002301220DF10701284603F062FE81
:100B30000028F6D19DF807C0BCF1530FF1D104464F
:100B4000B4F1140718BF0127BCF10A0F4FF00003DE
:100B50004FF001020DF10701284600D167B903F0FB
:100B600049FE9DF807C00028EED1132C06F804C0FA
:100B7000E6D80134E4B2E3E70020305503B0F0BD1D
:100B80002DE9F04307461E46002589B08846914668
:100B9000FFF7A6FB356097F800C0BCF1440F20D0EA
:100BA000BCF1550F58D1B91C022203A889F8005096
:100BB00011F0F7F901AA2B4903A88DF80E5011F096
:100BC0007FF90128BDF8044005D1A8F80040284667
:100BD00009B0BDE8F08324484FF0FF3501F014FC64
:100BE000F3E701230222044603A8B91889F800306C
:100BF00011F0D7F901AA1B4903A88DF80E5011F086
:100C00005FF90128BDF8049020D1023C391D03A8EA
:100C1000A8F80090E4B2221F11F0C3F908AB03A8B2
:100C200002AA1C440023114904F8143C11F048F9AD
:100C3000012805D1029B2846336009B0BDE8F08346
:100C40000B484FF0FF3501F0DFFBF3E706484FF0AC
:100C5000FF3501F0D9FBD8E706484FF0FF3501F02A
:100C6000D3FBB4E7783A01087C3A0108AC3A0108B2
:100C7000B03A0108D83A01082DE9F04372486E26CF
:100C8000724D2DED028B89B02C4600F009F9002140
:100C90006D4800F0EBF904216B4800F00BF90020DF
:100CA00001F0C0FB684800F001F9F7EE007AB0EE01
:100CB000408AC7EE808A4FF07C539FED650A4FF063
:100CC0000009204663600127E3604FF0000884EDCF
:100CD000048AC4ED058A84ED020AC4F8189010F065
:100CE0006DFE07EE906A84ED070A2046F8EEE77A7B
:100CF00084F8008084F829706E3684F828702C34CB
:100D000044ED097AB0EE670A10F058FE40F2023363
:100D100044F8289C9E4204ED040ACCD14D494A482F
:100D200000F0C0F802A8CDF80880FFF7C5FE02A8C1
:100D3000FFF7DEFE3946444800F0D8F803A902A8C0
:100D4000FFF7E8FE0028F9D101AB0DF101020DF12A
:100D5000020103A8FFF714FF04460028EED1019B0F
:100D60009DF80120BDF802103B4801F04DFB9DF8B5
:100D70000130012B09D0002BE0D1BDF802302C212D
:100D8000002201FB03535A60D8E7DDED016AF7EE5C
:100D9000005AB8EE666A9FED264B9FED277BB7EEB3
:100DA000C66AA6EE047BB7EEC77BB4EEE57AF1EE39
:100DB00010FA0FDDA6239FED298A2021224628481C
:100DC00001F022FBBDF802302C2202FB035383ED1D
:100DD000018AB3E7DFED237AB4EEE77AF1EE10FA99
:100DE00003D510239FED208AE7E7F1EE087A9FED07
:100DF000146B87EE278AF0EEC87AB5EEC08ABDEE96
:100E0000E77AF1EE10FA17EE104AB8EEC77A4CBF47
:100E10002D21202137EEC77AB7EEC77A27EE067B61
:100E2000FDEEC77B17EE903AC8E700BFAFF3008036
:100E30004FCAA48636001BBF7B14AE47E17AF03F51
:100E40000000000000408F402406002464060024B7
:100E50000000C8425D0A0008F83A0108ABAA2A3E21
:100E6000243B0108CDCCCC3D8988883C10B508488E
:100E70000024084A0849046044610462C46310F015
:100E8000A3FD2046034A0549BDE8104010F09CBD73
:100E90002406002400000024550A0008590A00080E
:100EA000704700BF143001F00DBA00BF143001F0DC
:100EB00005BA00BF38B500F1140504462DED028BCC
:100EC000284601F0EDF9284601F0F8F92846B0EE81
:100ED000408A01F0E1F9D0ED007AF8EE677A88EE09
:100EE000277ABDEC028B84ED0E7A38BD253001F0F7
:100EF0004BBD00BF10B540F203338EB000244FF657
:100F00000B7240F20341ADF8083009A80123ADF897
:100F10001020ADF824202246ADF80C100094029960
:100F200007940C94CDE90544CDE90A4401F054FB43
:100F300004A8012322460399009401F04DFB09A85F
:100F400001F030FC10B901200EB010BD04A801F072
:100F500029FCA0420CBF022020460EB010BD00BFED
:100F60002DE9F04103239AB0012700240646CDE97C
:100F700014373B4BCDE9104340F20453CDE91647FB
:100F8000ADF84830FFF7B6FFB842054625D0022835
:100F900045D040F60132334B0DF12C081894ADF8D2
:100FA0002C200B981997CDF84A3000F0E3F810A9DF
:100FB00006F13C0002F030FC302003224FF07E535B
:100FC00041460D930E93CDE90B02F26B06F114002E
:100FD00001F02AF91AB0BDE8F0811023214A06A9D0
:100FE00006908DF828300DF12C081F4BCDF84A20C3
:100FF00007930294CDE91804CDE9080402A801F092
:1010000043FE0823029A03A94046ADF80C508DF820
:101010000E40049505930B9400F0ECF8C7E7002010
:101020000121104B0DF12C083A460094CDF84A30BE
:101030004FF60B730C94ADF82C302346CDE9180114
:1010400040F601314046ADF818100699CDE90D443F
:1010500001F0C2FA2146404601F0B0FBA7E700BF0D
:1010600004020404040604030704010B2DE9F047FD
:1010700004462DED028B82B000294DD0012140F2B3
:10108000011200230091ADF804208DF80630364A95
:101090000127364B04F10409354904F1290862603F
:1010A00040F20272A36040F60663E16004F1250A93
:1010B000A4F82520A4F82930278284F8277084F822
:1010C0002B7003F04DFF054603F0B0FD6946064660
:1010D00050BB4DB304F130008DF8067003F0C8FE2C
:1010E000072D3CD104F114052046FFF739FF2846AF
:1010F00001F0E4F82846B0EE408A01F0CDF8D0EDDA
:10110000007AF8EE677A88EE277A84ED0E7A02B0DC
:10111000BDEC028BBDE8F08740F2011300918DF821
:101120000610ADF80430B2E704F1300003F0A0FE81
:10113000072D11D04946204601F0EEFF0EB9002DD3
:10114000D0D1504601F044FB404601F041FB04F190
:10115000120000F079F9C5E7002EF2D1C2E7494646
:10116000204601F0D9FFBDE705080509050705067A
:10117000050A060610B584B003460124ADF8040044
:1011800003A8ADF80C30ADF80E4001F021FB21466C
:1011900003A801F0F9FB204603F046FD002103A857
:1011A00001F0F2FB204603F03FFD214603A801F0C9
:1011B000EBFB04B010BD00BF10B5C2F3002384B038
:1011C0000C46017C8DF80D2043EA4402FA240223E8
:1011D0008DF80C2003AA009401F0ECFD18B1012455
:1011E000204604B010BD04460A2003F01DFD204631
:1011F00004B010BD034670B543F8042B044684B018
:1012000007C983E80700A37983B91A210B461E2278
:10121000FA2523742046ADF80C20022303AA00957A
:1012200001F0C8FD28B1012004B070BD1B210B46A0
:10123000EDE70A2003F0F8FC4FF4B85200950223C2
:10124000ADF80C20204603AA217C01F0B3FD002854
:10125000E9D10A2003F0E8FC41F202720095022372
:10126000ADF80C20204603AA217C01F0A3FD002844
:10127000D9D10A2003F0D8FC042200950223ADF84E
:101280000C20204603AA217C01F094FD0028CAD13D
:101290000A2003F0C9FC062200950223ADF80C20B9
:1012A000204603AA217C01F085FD0028BBD10A203D
:1012B00003F0BAFC41F2082200950223ADF80C209D
:1012C000204603AA217C01F075FD0028ABD10A203D
:1012D000064603F0A9FC0095022303AA217C2046C0
:1012E000ADF80C6001F066FD00289CD1304603F09B
:1012F0009BFC009522790C232046002A8DF80C30A7
:1013000003AA4FF0020314BF622142218DF80D1091
:10131000217C01F04FFD002885D1304603F084FC8C
:101320002279D4E902310B43DBB20AB943F040031E
:1013300062790AB143F020030E22FA258DF80D30B0
:101340002046009502238DF80C2003AA217C01F091
:1013500031FD00287FF467AF0A2003F065FC1022FE
:1013600000950223ADF80C20204603AA217C01F051
:1013700021FD00287FF457AF0A2003F055FC12210D
:1013800000950223ADF80C1003AA217C204601F041
:1013900011FD00287FF447AF0A2003F045FC01222D
:1013A00009212046FFF708FF003818BF01203BE75E
:1013B000F0B5102387B0234C012200250126002719
:1013C00002A920460195CDE902234FF48052CDE9D0
:1013D00004670AF075FA642004F000FC02A94FF4D7
:1013E00080522046CDE9046702261027CDE9026726
:1013F0000AF066FA0322102302A92046CDE902234F
:1014000000230422CDE904234FF480520AF058FA55
:1014100040F23223042202A9019310232046CDE991
:101420000223019A012305924FF4805204930AF09B
:1014300047FA40F6060120460AF062FA284607B04D
:10144000F0BD00BF740700241C4B00221C494FF064
:10145000400C30B5054689B00220596007219A60DA
:101460001A620124DA620A224FF4006EDC600692EE
:101470002022CDE9000104200821CDE9020103204A
:101480001021CDE9040108206946C3E904024FF4A4
:10149000C072181DC3E906C24FF48052C3E909E2C5
:1014A0000AF0E4F938B92846FFF782FF003818BF80
:1014B000012009B030BD204609B030BD70070024BE
:1014C00040410052614A0021D0B513688EB00A91A4
:1014D000002B40F0B9805E4B01214FF683700C2445
:1014E00011600221D3F8D4200026032742F4805251
:1014F000C3F8D420D3F8D42002F480520092009A8A
:10150000D3F8E02042F01002C3F8E020D3F8E02046
:1015100002F010020192019AD3F8E02042F040025A
:10152000C3F8E020D3F8E02002F040020292029AD1
:10153000D3F8E02042F00802C3F8E020D3F8E0201E
:1015400002F008020392039AD3F8E02042F480727A
:10155000C3F8E020D3F8E02002F480720492049AE9
:10156000D3F8E02042F08002C3F8E020D3F8E02076
:1015700002F080020592059AD3F8E02042F02002A2
:10158000C3F8E020D3F8E02002F020020692069A89
:10159000D3F8E02042F00402C3F8E020D3F8E030B2
:1015A0000C9403F0040307930323079A0B93CDE9EC
:1015B000080108A9274805F0B7FB48F237120223B3
:1015C00008A925480C94CDE90823CDE90A6705F060
:1015D000ABFB4CF20372022308A920480C94CDE91E
:1015E0000823CDE90A6705F09FFB40F2FF62022362
:1015F00008A91B480C94CDE90823CDE90A6705F03A
:1016000093FB4FF60C72022308A916480C94CDE9FF
:101610000823CDE90A6705F087FB4FF63F02022356
:1016200008A911480C94CDE90823CDE90A6705F013
:101630007BFB2022022308A90A480C94CDE90A6703
:10164000CDE9082305F070FB0EB0D0BD6C07002477
:10165000004402580010025800180258000C0258AA
:1016600000200258001C0258001402582DE9F04FC7
:10167000DFF8108406460D46144608F118002DEDDB
:10168000028B89B000AF02F0BFF9D8F8183073B3FD
:10169000D8F81C30D8F80490002B43690BBF4FF0EA
:1016A000080A4FF0100A4FF0020B4FF0040BB9F18B
:1016B000000F2AD0A200EA46012B02F1070222F015
:1016C0000702ADEB020D6846ADEB020D694600F076
:1016D0003F81022B00F0D680002B6FD02246C847F6
:1016E000D5462437BD46BDEC028BBDE8F08FD8F857
:1016F0001C30002BF5D0D8F804904FF0080A4FF0BA
:10170000020B4369B9F1000FD4D1FB61D8F8003066
:10171000BB61002BE5D0D54802F0E8F96B46BBF180
:10172000020F786108EE103AFB6900F083816A4687
:101730005146A2EBC40295466200EA46B2FBFBF2B8
:10174000AAEBC40085460AEB8200EE46F861ADEBD9
:10175000010DF8690EEB820CC7F810C0EC46ADEB3A
:10176000010D00EB8201CCF80400CCF8081001EB6D
:1017700082013869E946CCF80C1000EB8201CCF804
:1017800000A001EB8202C9E900E0C9E90212012BC5
:1017900000F06483022B00F06C82002B00F080814B
:1017A000620849466046BB69984718EE103A2437EC
:1017B0009D46BD46BDEC028BBDE8F08F002C8DD060
:1017C0001A46D8ED0C6A9FEDB27A8446331D36F97D
:1017D00022E00CF1080C07EE90EA33F922E0023225
:1017E000F8EEE77A944267EE877A67EEA67A4CEDD8
:1017F000027A07EE90EAF8EEE77A67EE877A67EE0C
:10180000A67A4CED017AE2D8F9612246C847984E93
:10181000D8ED0D6A0020F9692B1D9FED9E7A9FED92
:101820009E6ADFED9E5A22E0F4EEC67AF1EE10FADF
:10183000C0F2C88447F6FE72D1ED017A45F8202047
:1018400066EEA77AF4EEC77AF1EE10FA40F2F08075
:10185000F4EEC67AF1EE10FAC0F2D58447F6FE72C5
:1018600043F820200230083184427FF639AFD1EDB1
:10187000007A66EEA77AF4EEC77AF1EE10FAD3D8C2
:101880003246D9E7002C3FF429AFD8ED0C6A8446E4
:101890009FED787A0022331D8E4656F822100CF107
:1018A000080C07EE901A53F822100232F8EEE77A8D
:1018B000944267EE877A67EEA67A4CED027A07EEDD
:1018C000901AF8EEE77A67EE877A67EEA67A4CED23
:1018D000017AE2D871462246C7F81CE0C847664E36
:1018E000D8ED0D6A0020F9692B1D9FED6A7A9FEDF6
:1018F0006A6ADFF894C120E0F4EEC67AF1EE10FADD
:10190000C0F279843246D1ED017A45F8202066EEA6
:10191000A77AF4EEC77AF1EE10FA40F28780F4EE7F
:10192000C67AF1EE10FAC0F25E84324643F8202007
:101930000230083184427FF6D3AED1ED007A66EEF4
:10194000A77AF4EEC77AF1EE10FAD5D86246DAE754
:10195000002C3FF4C3AED8ED0C6A86469FED477A63
:101960004FF0000C331D56F82C200EF1080E82F4B7
:101970000002A2F5000207EE902A53F82C200CF189
:10198000020CF8EEE77A82F400026445A2F5000248
:1019900067EE877A67EEA67A4EED027A07EE902A16
:1019A000F8EEE77A67EE877A67EEA67A4EED017A6F
:1019B000D9D8F9612246C847314ED8ED0D6A0020CA
:1019C000F9692B1D9FED337A9FED336ADFF8BCC0B8
:1019D0001FE0F4EEC67AF1EE10FAC0F2FC83324654
:1019E000D1ED017A45F8202066EEA77AF4EEC77AA9
:1019F000F1EE10FA18D9F4EEC67AF1EE10FAC0F250
:101A0000DA83324643F820200230083184427FF6E0
:101A100067AED1ED007A66EEA77AF4EEC77AF1EE02
:101A200010FAD6D86246DBE76246EBE762467DE70E
:101A3000324615E7A100D6466208073121F00701BA
:101A4000ADEB010DEA46ADEB010D6946ADEB0E0DB8
:101A50000AEB8200EC46ADEB0E0D01EB8202F86161
:101A6000E946CCE900A0C9E9001290E6C4070024C9
:101A70000280FFFF000000300082FF7F0000003482
:101A800082FF7F00A8070024007E00807E0080FF88
:101A90000000003804FF7FBF04FF7F3F00FEFF46C9
:101AA000002C00F0C982BBF1020FD8F8242000F00E
:101AB000FA827969C7F8049002EB810E5FED0C5A47
:101AC0008A00DCF808100EF104007A611A46DCF88E
:101AD0000C303B61331DD7F810903D61FD69C7E9BB
:101AE00002CB8C46834636F92210D8ED0C7A06EEEE
:101AF000101A33F9221006EE901A3EF92210B8EEB1
:101B0000C66A07EE101AF8EEE66A3BF92210B8EE44
:101B1000C77A26EE256A66EEA56A27EE257A26EEB6
:101B2000276A66EEA76A27EE277A07EE901A510811
:101B30000232F8EEE77A0AEB8100944280ED006A07
:101B400005EB810067EEA57AC0ED006A0CEB810021
:101B500009EB810180ED007A98ED0C7A67EE877AC7
:101B6000C1ED007ABFD8D7F804903D69D7E902CB20
:101B700060466208BB6949469847D8F82C307A69B4
:101B8000D8ED0D6A1A441FED3D7A1FED3D6A2B1DFD
:101B9000904602F1040A5FED3F5A0022A84ED9E9AF
:101BA00000EC51E0F4EEC67AF1EE10FAC0F2C78212
:101BB00047F6FE7045F822000CEB0100D0ED007AEC
:101BC00066EEA77AF4EEC77AF1EE10FA4BD9F4EE8E
:101BD000C67AF1EE10FAC0F2BA8247F6FE70BBF197
:101BE000020F43F822002BD0D9F808000844D0EDAA
:101BF000007A66EEA77AF4EEC77AF1EE10FA36D9DB
:101C0000F4EEC67AF1EE10FAC0F2CD8247F6FE701D
:101C100048F82200D9F80C000144D1ED007A66EEB4
:101C2000A77AF4EEC77AF1EE10FA1ED9F4EEC67A6E
:101C3000F1EE10FAC0F2AF8247F6FE714AF82210B8
:101C4000023294427FF6B1AD51080EEB810089005B
:101C5000D0ED007A66EEA77AF4EEC77AF1EE10FACC
:101C6000A0D83046A6E73046B9E73146E6E7304629
:101C7000CEE7002C00F0E081BBF1020FD8F8243051
:101C800000F0E1817A69DCF8081003EB820EC7F8F6
:101C900004909300DFED6B5A0EF1040000227B618B
:101CA000DCF80C303B61331DD7F810903D61FD69C5
:101CB000C7E902CB8C46834656F82210D8ED0C7A41
:101CC00007EE101A53F82210B8EEC76A07EE101A82
:101CD0005EF82210F8EEC76A07EE101A26EE256AA3
:101CE0005BF82210B8EEC77A66EEA56A26EE276A80
:101CF00027EE257A66EEA76A27EE277A07EE901A76
:101D000051080232F8EEE77A0AEB8100944280ED46
:101D1000006A05EB810067EEA57AC0ED006A0CEB66
:101D2000810009EB810180ED007A98ED0C7A67EE75
:101D3000877AC1ED007ABFD8D7F804903D69D7E91A
:101D400002CB60466208BB6949469847D8F82C30F8
:101D50007A69D8ED0D6A1A449FED3E7A9FED3E6A8E
:101D6000131D9246DFF8E4C00022FB612B1D364EA6
:101D7000D9E9008E4EE0F4EEC67AF1EE10FAC0F228
:101D8000FC81304645F822000EEB0100D0ED007AD0
:101D900066EEA77AF4EEC77AF1EE10FA49D9F4EEBE
:101DA000C67AF1EE10FAC0F2EF813046BBF1020FB5
:101DB00043F822002AD0D9F808000844D0ED007A70
:101DC00066EEA77AF4EEC77AF1EE10FA35D9F4EEA2
:101DD000C67AF1EE10FAC0F2C98130464AF8220004
:101DE000D9F80C000144D1ED007A66EEA77AF4EE42
:101DF000C77AF1EE10FA1ED9F4EEC67AF1EE10FAB7
:101E0000C0F2AD813146F86940F8221002329442A6
:101E10007FF6CBAC510808EB81008900D0ED007A49
:101E200066EEA77AF4EEC77AF1EE10FAA3D8604610
:101E3000A8E76046BAE76146E5E76046CEE700BF3F
:101E40000280FFFF000000300082FF7F007E0080E4
:101E50000000003404FF7FBF04FF7F3F002C00F030
:101E6000EB807A690021D8F82430C7F8109003EB92
:101E7000820ED7F81C909300FD610EF104021FED55
:101E80000C6A7B61331D154656F821204808D8EDB1
:101E90000C6ABBF1020F82F40002A2F5000207EE09
:101EA000902A53F8212082F40002B8EEE77AA2F5D6
:101EB000000227EE067A07EE902A0AEB8002F8EE7F
:101EC000E77A27EE267A67EE867A82ED007A09EBCA
:101ED00080024FEA800067EEA67AC2ED007A27D032
:101EE0005EF8212082F40002A2F5000207EE902A9B
:101EF00055F8212082F40002B8EEE77AA2F500023C
:101F000027EE067A07EE902ADCF80820F8EEE77A4A
:101F1000024427EE267A67EE867A82ED007A98ED03
:101F20000C7ADCF80C2067EE877A0244C2ED007A66
:101F300002318C42A8D8D7F8109060466208BB697D
:101F40004946FD699847D8F82C307A69D8ED0D6A72
:101F50001A441FED407A1FED406A131D9246DFF8C8
:101F6000C4C20022FB612B1DAB4ED9E9008E4EE0AE
:101F7000F4EEC67AF1EE10FAC0F2C580304645F8AC
:101F800022000EEB0100D0ED007A66EEA77AF4EEA7
:101F9000C77AF1EE10FA49D9F4EEC67AF1EE10FAEA
:101FA000C0F2BF803046BBF1020F43F822002AD0B6
:101FB000D9F808000844D0ED007A66EEA77AF4EE6E
:101FC000C77AF1EE10FA35D9F4EEC67AF1EE10FACE
:101FD000C0F2AE8030464AF82200D9F80C00014425
:101FE000D1ED007A66EEA77AF4EEC77AF1EE10FA38
:101FF0001ED9F4EEC67AF1EE10FAC0F28B803146AB
:10200000F86940F82210023294427FF6CEAB5108B4
:1020100008EB81008900D0ED007A66EEA77AF4EE35
:10202000C77AF1EE10FAA3D86046A8E76046BAE78F
:102030006146E5E76046CEE7224649466046BB6911
:102040009847FFF7B2BBC7F810B0002298ED0C6AB2
:10205000331DDFED726AD7F81CB0786956F822108C
:1020600007EE901A53F82210B8EEE77A07EE901AAE
:1020700051080232F8EEE77A27EE267A0AEB810E53
:1020800094420BEB810167EEA67A27EE067A67EEA3
:10209000867A8EED007AC1ED007ADFD88300D7F81A
:1020A00010B07B614DE61A46C7F810B098ED0C6A87
:1020B000331DDFED5B6AD7F81CB0786936F9221062
:1020C00007EE101A33F9221007EE901AB8EEC77A0D
:1020D00051080232F8EEE77A27EE267A0AEB810EF3
:1020E00094420BEB810167EEA67A27EE067A67EE43
:1020F000867A8EED007AC1ED007ADFD88300D7F8BA
:1021000010B07B6134E5F0EE675AFEEEE45A15EE4E
:10211000900A34E7F0EE675AFEEEE45A15EE901A94
:102120006EE7F0EE675AFEEEE45A15EE900A3AE7D3
:10213000F0EE675AFEEEE45A15EE900A4BE767EEB2
:10214000A57AFDEEE77A17EE900A00B232E567EE67
:10215000A57AFDEEE77A17EE900A00B23FE5F0EEC1
:10216000675AFEEEE05A15EE901A4CE6F0EE675A0A
:10217000FEEEE05A15EE900A30E6F0EE675AFEEEFB
:10218000E05A15EE900AFDE5F0EE675AFEEEE05AD1
:1021900015EE900A0AE667EEA57AFDEEE77A17EEED
:1021A000901A09B24AE567EEA57AFDEEE77A17EED6
:1021B000900A00B22CE5F0EE675AFEEEE45A15EEF6
:1021C000902A1FE467EEA57AFDEEE77A17EE902AD3
:1021D00012B2FFF731BBF0EE675AFEEEE45A15EE8D
:1021E000902AFFF7FDBBF0EE675AFEEEE05A15EEBF
:1021F000902AFFF79BBBF0EE675AFEEEE05A15EE11
:10220000902AFFF780BB67EEA57AFDEEE77A17EE1E
:10221000902A12B2FFF724BB82FF7F00000000303B
:10222000000000387E0080FF30B5184C154685B0A0
:10223000046004F1080EEC460FC98EE80F00D4EDDF
:10224000047AF5EEC07A8CE80F00F1EE10FA1ADD90
:10225000B7EE006A94ED057A27EE277AC6EE276A74
:1022600084ED0D7AC4ED0C6A6DB1204640F8185F1C
:1022700001F0CAFB064903690020064A2162A262F6
:10228000E36005B030BD012005B030BDA8070024D3
:10229000002000300000003000680830704700BFA8
:1022A000B1F5807F03680A4628BF4FF48072B1F50C
:1022B000807F9A6094BF002001207047006818302A
:1022C00001F002BC30B5046883B008480D46A3682D
:1022D000A26A216A9B00009004F1180001F096FBAD
:1022E0000020C4E9000503B030BD00BF6D16000832
:1022F00010B4074B4FF07E513024002203201961A7
:102300009C60D8605DF8044B5961C3E906227047B0
:10231000A8070024704700BFF8B5134F3C687F2C16
:1023200007D98023114A42F224411C463B60A2F89F
:102330007E100F4D2B68012B0AD90C4E0D4D2246F5
:102340003146284600F02CF90028F8D13860F8BD55
:1023500022460649074800F023F90028F7D12B68E8
:10236000386001332B60F8BDE4070024E80700243F
:10237000E00700246808002430B4154C2168F1B14E
:102380004B1E144DE81810F801298C4619460A2AEC
:1023900001D00D2A02D14BB1013BF4E70CF102034D
:1023A0007F2B10D98023236030BC70470122022389
:1023B00023600D200A236854AB5430BC70470122BF
:1023C0000223044DF4E70CF101026146F0E700BF7F
:1023D000E4070024E807002410B5094C02460B4628
:1023E000084821680844C1F180010FF019FE2368F4
:1023F00018442060FFF7C0FFFFF78EFF10BD00BF3D
:10240000E4070024E80700240FB400B583B004A952
:1024100051F8040B0191FFF7DFFF03B05DF804EB07
:1024200004B0704710B5044600210A4800F032F8A5
:10243000002C094B14BF0222002208481A60FFF743
:10244000E3FF0748FFF7E0FF0A20BDE8104002F075
:10245000EBBB00BF68080024E00700243C3B0108F8
:102460004C3B0108064A0749074808B50FF0ACFA8B
:10247000034A04490548BDE808400FF0A5BA00BF6B
:102480000000002415230008680800246C080024BC
:10249000704700BF012910B506D0022915D051B1EF
:1024A000BDE8104006F022BB0A46344834490CF01F
:1024B00065FBE8B1FEE7334B0A46334C33493448F9
:1024C0001C600CF05BFB68B1FEE701222C492B4835
:1024D0000CF054FB00B1FEE72E4928480CF070FBCD
:1024E000C0B1FEE72B492A480CF06AFB60B1FEE759
:1024F000284922480CF064FB00B1FEE726491F483A
:102500000CF0ECFA08B3FEE7244921480CF0E6FA97
:10251000A8B1FEE7204919480CF0E0FA00B1FEE747
:1025200016480CF063FB024640B9164B164C17498F
:1025300017481C600CF022FB68B1FEE7FEE7144868
:102540000CF054FB0028ABD0FEE70C480CF04EFB1F
:102550000028A5D0FEE70F490D480CF031FB00B173
:10256000FEE70E490A480CF0B9FA00B1FEE7084848
:102570000CF03CFB002893D0FEE700BF0C0B0024BE
:1025800090020024A80D0024912400087402002465
:1025900070080024F802002454020024440200249D
:1025A000084691B208B502F015FE003818BF0120A8
:1025B00008BD00BF014805F077BD00BFB845002445
:1025C000014805F071BD00BFB8450024014805F081
:1025D0006BBD00BFB845002410B592B0ADF8041033
:1025E0000180C9B2149C0B29C460C0E901233FD00B
:1025F00090F801C0BCF10F0F3AD8022A3FD0032A4D
:1026000002D0012A00D000220E92012B02D0022B10
:1026100018BF0023022C0F932CD0032C2AD0012C9E
:1026200028D000230A29109327D85C4A02EB812284
:1026300002610A2914D8DFE801F0A39587796B5D60
:102640004F4133250600564BD3F8E01041F480612A
:10265000C3F8E010D3F8E03003F480630C930C9BD4
:1026600001230DA9104603FA0CF30D9304F05CFB53
:1026700012B010BD0A291094D7D90022D8E7112230
:102680000E92C2E7464BD3F8E01041F40071C3F854
:10269000E010D3F8E03003F400730B930B9BDFE7FB
:1026A0003F4BD3F8E01041F48071C3F8E010D3F849
:1026B000E03003F480730A930A9BD1E7384BD3F8D8
:1026C000E01041F08001C3F8E010D3F8E03003F0EF
:1026D00080030993099BC3E7314BD3F8E01041F025
:1026E0004001C3F8E010D3F8E03003F04003089352
:1026F000089BB5E72A4BD3F8E01041F02001C3F85E
:10270000E010D3F8E03003F020030793079BA7E71E
:10271000234BD3F8E01041F01001C3F8E010D3F8D8
:10272000E03003F010030693069B99E71C4BD3F8A7
:10273000E01041F00801C3F8E010D3F8E03003F0F6
:1027400008030593059B8BE7154BD3F8E01041F088
:102750000401C3F8E010D3F8E03003F0040304935D
:10276000049B7DE70E4BD3F8E01041F00201C3F863
:10277000E010D3F8E03003F002030393039B6FE70C
:10278000074BD3F8E01041F00101C3F8E010D3F893
:10279000E03003F001030293029B61E7000002585E
:1027A0000044025808B5012143780069994089B274
:1027B00004F0C2FC003818BF012008BD01230A46FE
:1027C0004178006903FA01F189B204F0BBBC00BF93
:1027D0008378022B30B504468FB037D0032B33D02B
:1027E000012B31D000230A93E378012B2AD0022B4E
:1027F00028D000230B93002320460C9303F0CCF841
:102800000546204603F0D0F823780990082B13D80A
:10281000DFE803F01F3245586B7E91A40500594B49
:10282000D3F8E02042F48072C3F8E020D3F8E0301F
:1028300003F480730893089B09A9284604F074FAEE
:102840000FB030BD0B93D6E70A93CDE711230A935F
:10285000CAE74C4B09A92846D3F8E02042F0010210
:10286000C3F8E020D3F8E03003F001030093009BAD
:1028700004F05AFA0FB030BD424B09A92846D3F8EC
:10288000E02042F00202C3F8E020D3F8E03003F089
:1028900002030193019B04F047FA0FB030BD394B9E
:1028A00009A92846D3F8E02042F00402C3F8E0204A
:1028B000D3F8E03003F004030293029B04F034FAEF
:1028C0000FB030BD2F4B09A92846D3F8E02042F0C5
:1028D0000802C3F8E020D3F8E03003F008030393C4
:1028E000039B04F021FA0FB030BD264B09A92846FE
:1028F000D3F8E02042F01002C3F8E020D3F8E03033
:1029000003F010030493049B04F00EFA0FB030BDE3
:102910001C4B09A92846D3F8E02042F02002C3F856
:10292000E020D3F8E03003F020030593059B04F08A
:10293000FBF90FB030BD134B09A92846D3F8E020AE
:1029400042F04002C3F8E020D3F8E03003F0400347
:102950000693069B04F0E8F90FB030BD094B09A9B6
:102960002846D3F8E02042F08002C3F8E020D3F8F4
:10297000E03003F080030793079B04F0D5F90FB014
:1029800030BD00BF0044025870B506460D4603F046
:1029900003F80446304603F007F82A1E0146204695
:1029A00018BF0122BDE8704004F0CCBB0023122206
:1029B00070B586B0CDE9022304930368032B01D8D8
:1029C00004230593061D841D304602F0E5FF0546ED
:1029D000304602F0E9FF034601A92846019304F0BE
:1029E000A3F9204602F0D8FF034620461C4602F019
:1029F000DBFF01A903462046019304F095F906B0D8
:102A000070BD00BF634A0368934210B58CB028D0F4
:102A1000614A934258D0614A934200F09480604AE0
:102A2000934201D00CB010BD5E4C5F48D4F8E0304A
:102A300043F00203C4F8E030D4F8E03003F00203BE
:102A40000A930A9BFFF7B2FFD4F8F43043F08003F7
:102A5000C4F8F430D4F8F43003F080030B930B9BEC
:102A6000E0E7504C5148D4F8E03043F00203C4F89A
:102A7000E030D4F8E03003F002030193019BFFF74C
:102A800095FFD4F8E83000221F2043F400131146CC
:102A9000C4F8E830D4F8E83003F400130293029B42
:102AA000D4F8D83043F00103C4F8D830D4F8D83083
:102AB00003F001030393039B03F0BAF81F200CB04B
:102AC000BDE8104003F0F2B8364C3948D4F8E03095
:102AD00043F08003C4F8E030D4F8E03003F0800322
:102AE0000493049BD4F8E03043F00203C4F8E030D0
:102AF000D4F8E03003F002030593059BFFF756FF7F
:102B0000D4F8E8300022212043F480031146C4F8B1
:102B1000E830D4F8E83003F480030693069BD4F839
:102B2000D83043F00103C4F8D830D4F8D83003F0DB
:102B300001030793079B03F07BF821200CB0BDE84D
:102B4000104003F0B3B81B48FFF730FF154B0022CD
:102B50004820D3F8E840114644F40004C3F8E840A4
:102B6000D3F8E84004F400040894089CD3F8D84053
:102B700044F00104C3F8D840D3F8D83003F001037F
:102B80000993099B03F054F848200CB0BDE81040AD
:102B900003F08CB80054004000580040005C004036
:102BA000001C00580044025838100024B00D0024C6
:102BB000880E0024600F00242DE9F0431A4B87B0E3
:102BC00000254FF010099E46EC46184BFF22E046C8
:102BD00067461A700EF118060EF13004CDE9005563
:102BE000CDE90255ADF80090BCE80F00CDE90455E1
:102BF000AEE80F009CE803000095ADF800908EE869
:102C00000300B8E80F000FC69CE803000095ADF87C
:102C1000009086E803000FCF0FC49CE8030084E80F
:102C2000030007B0BDE8F08304000024AD0D0024CC
:102C300010B5EFF3108472B6084B1A78120602D55D
:102C400004B962B610BD1B78D82205485BB202FBFE
:102C50000300143003F016FDF2E700BFAD0D0024B1
:102C6000B00D0024014805F005B900BF3C0E00245A
:102C7000014805F0FFB800BF140F0024014805F01B
:102C8000F9B800BFEC0F00242DE9F0430F68D824F9
:102C90003F4D85B007FB04F4032F05EB04030360ED
:102CA00040DCCB680E46012B3CD84DD04FF0D80805
:102CB000B646DFF8FC9008FB0758BEE80F00C44694
:102CC000ACE80F00DEF800300DF1100ECCF800304B
:102CD000D8F808C099E80F000EE90F000EEB870343
:102CE000BCF1010F53F8103CC8F88C3031D0BCF166
:102CF000020F42D0BCF1000F35D0317C8C34D82388
:102D0000002201202C4403FB07534900C3E926029B
:102D1000C3F894102046C3E92822C3E92A2204F00C
:102D20009BFE18B1012005B0BDE8F08301462046A6
:102D300005F0ACF80028F5D10146204605F0D0F8A2
:102D4000003818BF0120EEE70B7C103B672BADD994
:102D5000E8E702F003F90F4B98420CBF0E4B0F4B04
:102D6000C8F89030C9E702F0F9F80A4B98420CBF56
:102D70000B4B0C4BC8F89030BFE702F0EFF8054B57
:102D800098420CBF084B094BC8F89030B5E700BF1C
:102D9000B00D0024000E27072D0FB0303211D020C7
:102DA0005F4390608A62E030200BA0101A09801007
:102DB000303A01082DE9F041D0F8008082B00D468C
:102DC00017461E4608F18C04204605F05BF82028C3
:102DD000FAD1D8F80C3073B96D002046089C334600
:102DE0003A46A9B2009404F08DFE003818BF0120C5
:102DF00002B0BDE8F081089B32463946204604F017
:102E000055FFF2E7044B10221A7483F8E82083F888
:102E1000C02183F898227047B00D002430B50023FC
:102E200095B04FF48071062204460B9306921393DB
:102E3000CDE90C13CDE90E33CDE9113302F090F852
:102E400007282BD004F1100541F2883206A9284644
:102E500005F098FF28B10123184684F85C3015B0BE
:102E600030BD0222022306A92846CDE90023102204
:102E70000123CDE9022300224FF48003CDE904238E
:102E800005224FF0807306926A460F9341F2883311
:102E900006F0E4F80028DED115B030BD0323012090
:102EA00084F85C3015B030BD70B50023A4B04FF08D
:102EB00080724FF480750446ADF806300D93CDE96D
:102EC00010320122CDE90E53CDE91223CDE914339E
:102ED000002943D0F02300F1100508AEADF806300C
:102EE000C02341F2883231462846089305F04AFF54
:102EF00028B10123184684F85C3024B070BD41F23B
:102F000088320DF10601284605F0A6FF0346002889
:102F1000EFD105224FF480711E93284616924FF090
:102F200080721B9321931F9202AA9FED1F7BCDE914
:102F30001C13CDE922338DED027B9FED1D7B41F209
:102F4000883316A98DED047B9FED1B7B8DED067BF1
:102F500006F084F80028CCD124B070BD00F1100533
:102F600008AE612341F2883231462846089305F0C5
:102F700009FF0028BDD141F288320DF10601284633
:102F800005F0E8FF0028B4D1BDF80630204623F054
:102F9000780343F04003ADF80630FFF73FFF002809
:102FA0009ED0A6E7AFF30080000000000100000003
:102FB00010000000010000000000000000004000C0
:102FC0002DE9F04F00234FF4807501264FF08078F3
:102FD00004462DED028BABB08DF80730139321938F
:102FE000299314950E96CDF85C80CDE91533CDE983
:102FF0001863CDE91A33CDE92253CDE92433CDE965
:10300000273306231C9301F0ABFF072808D004F1F7
:10301000100741F288321CA9384605F0B3FE40B1D2
:103020000123184684F85C302BB0BDEC028BBDE860
:10303000F08F4FF0020A4FF0020B4FF0050941F2FA
:10304000883308AA1CA93846CDF89480CDF8709032
:103050009FED2D8BCDE908AB4FF0000A4FF4800BAC
:103060008DED0A8BCDE90CAB05F0F8FF0028D7D128
:1030700041F2883238460EA905F084FE0028CFD1EF
:10308000402341F288320DF1070138468DF80730B0
:1030900005F0E2FE0028C3D141F288330EA902AA4E
:1030A0003846CDF83890CDF85C809FED197B8DEDDA
:1030B000048BCDE906AB8DED027B05F0CFFF034617
:1030C0000028ADD1CDF870904FF00109CDF8948073
:1030D0004FF00008219308AA29931CA9384622958D
:1030E000CDE92333CDE9273341F288338DED0A8BC7
:1030F000CDE90CABCDE9088905F0B0FF002893D0ED
:10310000304684F85C608FE710000000010000008A
:1031100040000000400000002DE9F043624CA3B0E5
:103120000D46046001F01CFF072800F0A980286804
:1031300023466968AA6807C31E46AB8926F8043B84
:103140003046257B677B05F0FFFDE0B9574B012D2D
:103150004FF00108E061236114BF4FF480134FF476
:103160000003C4E9058893FAA3F3B3FA83F34FF499
:103170008079013BC4F82490C4E90B0030462362F7
:1031800005F076FD38B10122134684F85C2018461C
:1031900023B0BDE8F08366230B90139041F2883290
:1031A00006A90693CDE90C90CDE90E00CDE91100FA
:1031B000304605F0E7FD0028E5D1992341F2883239
:1031C00006A93046069305F0DDFD0028DBD1052376
:1031D0001C9019906A4614934FF08073219014A9A3
:1031E0001D9341F288339FED2A7BCDE91A90CDE9FA
:1031F0001F008DED007B9FED287B30468DED027B1F
:103200009FED277B8DED047B05F028FF0028BAD1C8
:1032100029462046FFF748FE0028B4D12046FFF794
:10322000CFFE03460028AED1002FB0D11893304610
:103230000027002606AA14A9CDF86890CDE91F330F
:10324000EB2314934FF440631B934FF400531793F5
:103250004FF440431C93A0231693062319934FF079
:10326000805321934FF04073CDE906671D9305F01D
:103270006DFF034600288AD0434684F85C8086E7C9
:1032800001230322184684F85C2023B0BDE8F083B4
:10329000000000000100000010000000010000001C
:1032A00000000000000040001011002400500052F7
:1032B0002DE9F04F8FB0414B0024026800AF9A42D5
:1032C0007C63C7E90944C7E90B4403D03C37BD46DA
:1032D000BDE8F08F3A4B40F609213A48EB46D3F867
:1032E000D42007F11C0607F1220A4FF0020942F42C
:1032F00080424FF00308C3F8D420D3F8D42002F45E
:103300008042BA60BA68D3F8E02042F04002C3F8C5
:10331000E020D3F8E02002F04002FA60FA68D3F827
:10332000E02042F02002C3F8E020D3F8E02002F0D1
:1033300020023A613A69D3F8E02042F01002C3F863
:10334000E020D3F8E02002F010027A617A69D3F825
:10335000E02042F00202C3F8E020D3F8E030F86148
:1033600003F002033984BB61174B7B60BB697B6848
:1033700053F8040F7B6002F00FFB7B68054618686A
:1033800002F012FB16F8013B786207F1240128468F
:10339000C7F830807B63C7E90A9403F0C5FC564543
:1033A000E5D100225C20114602F042FC5C2002F0D4
:1033B0007DFC3C37DD46BD46BDE8F08F0050005235
:1033C000004402580A0A09096C110024114B0268D2
:1033D0009A4200D07047104A70B5D2F8D4300F4CE2
:1033E00023F4804304F11806C2F8D43054F8040FD3
:1033F00002F0D2FA0546206802F0D6FA01462846C5
:1034000003F0D2FDB442F1D15C20BDE8704002F07F
:103410005BBC00BF00500052004402586C110024F5
:10342000014805F01FBF00BF20110024084B1A1DE2
:10343000981D03F1080110B49C1C9A6603F10A025E
:10344000C3E91834C3E91B015DF8044B5A677047A0
:103450001011002438B5036871B9026A00F128051B
:1034600000F5AC74012A0CBF002140218BBB1D4B21
:103470005722C0F858310DE0426A00F1C00500F54E
:10348000E874012A0CBF00214021EBB1164B5A22EF
:10349000C0F8D03100232046C4E901214FF4805206
:1034A0004FF48061636262614FF48042C4E903318A
:1034B0004FF48073C4E906234FF40033236202F013
:1034C00069FD58B1FFBEFEE7084B5822C0F8D03165
:1034D000E0E7074B5922C0F85831DBE7C5E9204443
:1034E000A56338BD10000240700002402800024071
:1034F000580002402DE9F043821D05468BB0031DA4
:1035000005F10A010830CDE9052305F10C02AB698C
:10351000CDE907010992002B3DD0EB69B3FA83F89E
:103520004FEA58180123022205AE0AAF4FF00609F0
:103530000393CDE9012356F8044B2B79227893426B
:1035400016D02B68F3B1012B02D1F2B10A230493F8
:10355000204602F029FA03462046009302F01CFAA6
:10356000694603F0E1FBBE42E5D10BB0BDE8F08354
:10357000697963789942E4D1B8F1000FF3D02B68F0
:10358000002BE0D1CDF81090E2E76378022B14BF56
:103590000A230823DBE74FF00108C3E7534A036817
:1035A000934230B505468BB055D02032934252D06D
:1035B0004F4A934204D02032934201D00BB030BD29
:1035C0004C4C4D48D4F8E03043F00103C4F8E030EF
:1035D000D4F8E03003F001030593059BD4F8E03004
:1035E00043F00803C4F8E030D4F8E03003F00803F7
:1035F0000693069BD4F8E03043F04003C4F8E03073
:10360000D4F8E03003F040030793079BD4F8F03080
:1036100043F40003C4F8F030D4F8F03003F40003AE
:103620000893089BFFF766FFD4F8D830296843F069
:1036300001032F4A3048C4F8D830891AD4F8D8305A
:1036400018BF012103F001030993099B0BB0BDE8EA
:103650003040FFF7FFBE274C2848D4F8E03043F055
:103660000103C4F8E030D4F8E03003F00103009324
:10367000009BD4F8E03043F01003C4F8E030D4F8F5
:10368000E03003F010030193019BD4F8E03043F0E5
:103690004003C4F8E030D4F8E03003F04003029374
:1036A000029BD4F8F03043F48003C4F8F030D4F82F
:1036B000F03003F480030393039BFFF71BFFD4F860
:1036C000D830296843F00103084A0C48C4F8D830C0
:1036D000891AD4F8D83018BF012103F001030493EC
:1036E000049B0BB0BDE83040FFF7B4BE0458014066
:1036F000045C014000440258E413002488110024B3
:10370000014802F0BFBF00BFE0120024014802F0F0
:10371000B9BF00BF58130024014802F0B3BF00BF77
:103720003C150024014802F0ADBF00BFB4150024D1
:103730001A4A0368934210B40BD02032934208D047
:10374000174A934216D02032934213D05DF8044BAF
:103750007047144B0022D3F85442C3F85822002C6F
:10376000F4D0D3F84802D3E9931223465DF8044B12
:10377000520818470B4B0022D3F8B044C3F8B424C6
:10378000002CE3D0D3F8AC24D3F8A814D3F8A404C5
:10379000520823465DF8044B184700BF0458014007
:1037A000045C014088110024184A0368934210B455
:1037B0000BD02032934208D0154A934217D02032C2
:1037C000934214D05DF8044B7047124BD3E9942414
:1037D0005208C3F85822002CF4D0D3E992012346B2
:1037E00001EB820100EB82005DF8044B1847094BA6
:1037F000D3F8AC24D3F8B0445208C3F8B424002C56
:10380000E0D0D3F8A814D3F8A404E8E704580140A2
:10381000045C0140881100242DE9F04F0C684FF43E
:103820001776754F87B004FB06F6012C07EB060AE6
:10383000C0F800A000F3A0800D468E464FF00008AF
:10384000D44669A3D3E9002369A1D1E90001CDE9F8
:10385000022306ABCAF8508203EB8403CDE90401CE
:1038600053F810BC53F8083CCAE992880193BEE8AB
:103870000F00ACE80F00BEE80F00ACE80F00019BA2
:103880009EE80300CAF828B0CAF8C0308CE80300EC
:103890002B69042B0CD8DFE803F0737D87910300BC
:1038A0004FF41773554A03FB04739A64C3F8E0207E
:1038B000AA692B6A002A43D0002B4FF4177308BF64
:1038C000022203FB047318BF0322DA6201221A6387
:1038D000EA696B6A002A40D1191E4FF4177318BFAA
:1038E000012103FB0473C3E931126B69022B05D874
:1038F000434A12F80380434A52F823904FF4177357
:1039000006F128004246494603FB0474002338446C
:1039100063646363E365C4F8DC30C4F8CC30C4F896
:10392000F430C4E90F33C4E91533C4E93533C4E9CD
:103930003B33022307F038FD002849D0FFBEFEE7E5
:10394000191E4FF4177318BF012103FB0473C3E959
:103950000B12EA696B6A002ABED0002B4FF4177372
:1039600008BF022203FB047318BF0322C3F8C4205C
:103970000122C3F8C820B8E7012007B0BDE8F08FE6
:103980004FF417734FF4FA5203FB04739A64C3F8AD
:10399000E0208DE74FF417734FF47A5203FB047362
:1039A0009A64C3F8E02083E74FF417734FF4FA42A8
:1039B00003FB04739A64C3F8E02079E74FF41773AC
:1039C0004BF6803203FB04739A64C3F8E0206FE780
:1039D00006F1C000022342464946384407F0E4FCA1
:1039E0000028CAD0FFBEFEE704580140045C014035
:1039F00024580140245C0140881100240077010014
:103A00005C3B0108603B01080068704770B50468C2
:103A100082B015460E46C4F85032C4E99212069A96
:103A2000C4F85422A269012A26D0626A012A9AB2F5
:103A300011D0294604F1C000019207F071FD236AFC
:103A4000019A012B10D0294604F1280007F068FDE7
:103A5000002002B070BD04F1C000019207F0F2FD39
:103A6000236A019A012BEED1314604F1280007F0B8
:103A7000E9FD002002B070BD226A012A9AB211D07D
:103A8000294604F12800019207F04AFD636A019A71
:103A9000012B10D0294604F1C00007F041FD0020A1
:103AA00002B070BD04F12800019207F0CBFD636AFB
:103AB000019A012BEED1314604F1C00007F0C2FD9E
:103AC000002002B070BD00BF03681B69042B05D83D
:103AD000044A02EB830393ED000A70479FED020A4C
:103AE000704700BF6C3B010800803B470368D3F878
:103AF000580270471F4BC1680268F0B5D3F88C506C
:103B000083B00369ADB24D1BA2B1AB4212D00446E3
:103B1000866811D2F018E91ACDE9001000F0BEFF56
:103B20000023DDE90010D4E90062B047E3682561B5
:103B3000AB421BD003B0F0BDF018C91ACDE90001AB
:103B400000F0ACFF0023DDE90001D4E90072B847C2
:103B50003046294600F0A2FF00233046626829461D
:103B60002668B047E3682561AB42E3D100232361B7
:103B700003B0F0BD000002402DE9F84F04460F46A7
:103B800090461E4600F13405284608F08FF920289B
:103B9000FAD14FF480630020C4F8D030C4F8483123
:103BA0004FF44033C4F8CC00C4F8E030C4F85831C6
:103BB0004E4BC4F8DC00C4F8C03003F57A73C4F887
:103BC000E400C4F838314023C4F8C800C4F84031D8
:103BD000E369C4F84401C4F85401C4F85C01C4E9C1
:103BE0003500C4E95300072B0BD8DFE803F061531D
:103BF0005A373E454C045123C4F8C4305223C4F80C
:103C00003C3104F59C79484602F0C4F908B1FFBE86
:103C1000FEE7C4F8A890C4F87051EFF3108972B6AB
:103C2000DFF8D0B094F91C30DFF8CCA08BF800306E
:103C30000A9B2F4CCAF800300B9B23600EB118462C
:103C4000B0471FFA88F23946284607F019FFB0BB83
:103C5000B9F1000F00D162B6BDE8F88F3F23C4F878
:103C6000C4304023C4F83C31CBE74123C4F8C4300E
:103C70004223C4F83C31C4E74723C4F8C430482386
:103C8000C4F83C31BDE74F23C4F8C4305023C4F816
:103C90003C31B6E72B23C4F8C4302C23C4F83C31A4
:103CA000AFE72D23C4F8C4302E23C4F83C31A8E775
:103CB0002923C4F8C4302A23C4F83C31A1E7FF23E8
:103CC0008BF800300023CAF8003023600A9B3BB118
:103CD0000B98012198470120B9F1000FBCD1BAE738
:103CE0000120B9F1000FB7D1B5E700BF880002404D
:103CF0007825002474250024702500242DE9F84F30
:103D000004460F4690461E4600F13405284608F04A
:103D1000CDF82028FAD14FF480630020C4F8D030C9
:103D2000C4F848314FF44033C4F8CC00C4F8E03054
:103D3000C4F858314E4BC4F8DC00C4F8C03003F569
:103D40007A73C4F8E400C4F838314023C4F8C800DA
:103D5000C4F84031E369C4F84401C4F85401C4F81C
:103D60005C01C4E93500C4E95300072B0BD8DFE838
:103D700003F061535A373E454C045123C4F8C43014
:103D80005223C4F83C3104F1C009484602F002F95C
:103D900008B1FFBEFEE7C4F8AC90C4F8F850EFF3EA
:103DA000108972B6DFF8D0B094F91C30DFF8CCA0DF
:103DB0008BF800300A9B2F4CCAF800300B9B236015
:103DC0000EB11846B0471FFA88F23946284607F068
:103DD000A9FEB0BBB9F1000F00D162B6BDE8F88F03
:103DE0003F23C4F8C4304023C4F83C31CBE741231F
:103DF000C4F8C4304223C4F83C31C4E74723C4F8B4
:103E0000C4304823C4F83C31BDE74F23C4F8C43064
:103E10005023C4F83C31B6E72B23C4F8C4302C231C
:103E2000C4F83C31AFE72D23C4F8C4302E23C4F8C6
:103E30003C31A8E72923C4F8C4302A23C4F83C3114
:103E4000A1E7FF238BF800300023CAF8003023607D
:103E50000A9B3BB10B98012198470120B9F1000F53
:103E6000BCD1BAE70120B9F1000FB7D1B5E700BF67
:103E70008800024078250024742500247025002441
:103E80002DE9F0410D4682B0EFF3108772B600299C
:103E900048D1FF23254A264C237013682BB10020FC
:103EA00029461060234A1068984723781B0625D5B9
:103EB000DFF888800025204E444605E001351C349B
:103EC00006F5D876092D19D0A369012B1BD0002B3C
:103ED000F4D1216830460029F0D063690193236949
:103EE0000093E3682289FFF709FF0028E6D1C5EBBC
:103EF000C50508EB850348F82500586007B962B688
:103F000002B0BDE8F08161680029D7D0636930460E
:103F1000019323690093E3682289FFF72DFE0028AF
:103F2000CCD1E4E709F0BEFAB3E700BF7025002466
:103F30007425002478250024401600244C00002419
:103F4000F0B5002387B0022204460493CDE9022392
:103F5000027EC3690B2A4FEA430523D1A27E0B2AB6
:103F600002D1002007B0F0BD48496B1C484851F809
:103F70002330457801781878E67E884269D08242FD
:103F800077D0D87803F1030C81426ED0824278D08A
:103F9000987903F1060C88426FD0824233D0012019
:103FA00007B0F0BD394B3A4853F8253001784678D0
:103FB000187894F819C081423DD0824241D0D87817
:103FC00003F1030E814240D082424AD0987903F136
:103FD000060E884241D08242E1D1DB796345DED1D1
:103FE000734604F118069B783046059301F0D4FC23
:103FF000034630461E4601F0D7FC01A90190304629
:1040000002F092FEAAE7DB79B342C8D163461A34C4
:104010009B782046059301F0BFFC034620461C46D2
:1040200001F0C2FC034601A92046019302F07CFE88
:10403000002007B0F0BD93F801E0B645BFD0824242
:10404000BDD158786045BAD1CBE71F79B742BBD113
:10405000BCE75F78AF4292D193E7D979B142BAD148
:104060009DE718796045B1D1BAE71F79AF428DD18C
:104070008EE75878B04284D1C9E7D979A9428CD16A
:104080008DE71879B04283D1C0E700BF64010024F6
:10409000600100247E4A03689342F0B58FB000F0BF
:1040A000E380A2F54C42934200F0E08002F580628A
:1040B000934200F0DD8002F58062934200F0DA80E6
:1040C00002F58062934200F0D98002F544429342A7
:1040D00000F0D280A2F51C42934200F0D18002F59C
:1040E0008062934200F0CE806A4A934240F0CC80D6
:1040F0000826694D4FF4D87404FB0654A07E01F0E5
:104100005BFC207E01F058FCE369082B13D8DFE844
:1041100003F03B49576573818F9D05005F4BD3F8D2
:10412000F42042F00802C3F8F420D3F8F43003F08E
:1041300008030893089B2046FFF702FF012801D1DE
:10414000FFBEFEE74FF4D8740EAA554F0DF1240CB4
:1041500004FB0654E36902EB43050FCFACE80F0004
:104160003B680022ACF80030114635F9140C01F020
:104170005FFDE3690EAA02EB430333F9140C0FB0A1
:10418000BDE8F04001F092BD444BD3F8F02042F07E
:104190001002C3F8F020D3F8F03003F010030093BE
:1041A000009BC8E73D4BD3F8E82042F40032C3F847
:1041B000E820D3F8E83003F400330193019BBAE719
:1041C000364BD3F8E82042F48022C3F8E820D3F835
:1041D000E83003F480230293029BACE72F4BD3F823
:1041E000E82042F40022C3F8E820D3F8E83003F4D2
:1041F00000230393039B9EE7284BD3F8E82042F467
:104200008012C3F8E820D3F8E83003F48013049355
:10421000049B90E7214BD3F8F02042F02002C3F832
:10422000F020D3F8F03003F020030593059B82E7DC
:104230001A4BD3F8E82042F08042C3F8E820D3F8C4
:10424000E83003F080430693069B74E7134BD3F8E2
:10425000E82042F00042C3F8E820D3F8E83003F049
:1042600000430793079B66E7002642E7012640E7E5
:1042700002263EE703263CE705263AE7042638E710
:10428000062636E7072634E700239B7EFFDE00BFC5
:1042900000100140000C0058401600240044025851
:1042A000403A01082DE9F04F91B0002301223F4927
:1042B0000DF1240A09938B4601F11C09CAF8143048
:1042C00001F13808CDF800A001F15407CDF804A0A1
:1042D00001F17006CDF808A001F18C05CDF80CA015
:1042E00001F1A804CDF810A001F1C40ECDF814A07E
:1042F00001F1E00CCAE90133CAE903330F92FF224E
:104300002B4BCDE906AA1A70BAE80F00ABE80F00F4
:104310009AE80700009B8BE807009B46BBE80F006C
:10432000A9E80F009AE80700019B89E80700994671
:10433000B9E80F00A8E80F009AE80700029B88E898
:1043400007009846B8E80F000FC79AE80700039BDC
:1043500087E807001F460FCF0FC69AE80700049BA7
:1043600086E807001E460FCE0FC59AE80700059B9A
:1043700085E807001D460FCD0FC49AE80700069B8D
:1043800084E807001C460FCCAEE80F00079B9AE8B4
:1043900007001C468EE807000FCCACE80F009AE837
:1043A00007008CE8070011B0BDE8F08F4C00002436
:1043B0007425002410B5094C04F1340007F084FC86
:1043C000237D1BB1636BDB69DB0600D410BD204687
:1043D000FFF790FB636B10221A6210BD4016002499
:1043E00010B50B4C04F5F27007F06EFC94F8C43174
:1043F00023B1D4F8E431DB69DB0600D410BD04F549
:10440000D870FFF777FBD4F8E43110221A6210BDA0
:104410004016002410B50B4C04F5657007F054FCF1
:1044200094F8743323B1D4F89433DB69DB0600D4F9
:1044300010BD04F55870FFF75DFBD4F894331022DB
:104440001A6210BD4016002410B50B4C04F2445003
:1044500007F03AFC94F8243523B1D4F84435DB69ED
:10446000DB0600D410BD04F5A260FFF743FBD4F8CF
:10447000443510221A6210BD4016002410B50B4CB2
:1044800004F2F46007F020FC94F8D43623B1D4F899
:10449000F436DB69DB0600D410BD04F5D860FFF705
:1044A00029FBD4F8F43610221A6210BD40160024FD
:1044B00010B50B4C04F6A40007F006FC94F8843801
:1044C00023B1D4F8A438DB69DB0600D410BD04F5B1
:1044D0000760FFF70FFBD4F8A43810221A6210BD52
:1044E0004016002410B50B4C04F6542007F0ECFBEA
:1044F00094F8343A23B1D4F8543ADB69DB0600D49B
:1045000010BD04F52260FFF7F5FAD4F8543A1022F2
:104510001A6210BD4016002410B50B4C04F604407E
:1045200007F0D2FB94F8E43B23B1D4F8043CDB69F8
:10453000DB0600D410BD04F53D60FFF7DBFAD4F8CC
:10454000043C10221A6210BD4016002410B50B4C1A
:1045500004F6B45007F0B8FB94F8943D23B1D4F8B6
:10456000B43DDB69DB0600D410BD04F55860FFF7ED
:10457000C1FAD4F8B43D10221A6210BD40160024CE
:1045800010B5EFF3108472B6084B1A78120602D5F4
:1045900004B962B610BD1B784FF4D87204485BB200
:1045A00002FB0300C03002F06DF8F1E7742500242F
:1045B0004016002410B5EFF3108472B6094B1A7838
:1045C000120602D504B962B610BD1B784FF4D8723A
:1045D00005485BB202FB030000F59C7002F052F844
:1045E000F0E700BF74250024401600240021FFF7E7
:1045F00047BC00BF214A036893422BD0A2F54C422E
:10460000934229D002F58062934227D002F580625E
:10461000934225D002F58062934223D002F54442B2
:10462000934221D0A2F51C4293421FD002F5806232
:1046300093421DD0124A93421CD108224FF4D871E4
:10464000104B01FB0233197D11B11846FFF752BA26
:10465000FFF716BC0022F1E70122EFE70222EDE7A7
:104660000322EBE70422E9E70522E7E70622E5E774
:104670000722E3E700231B7DFFDE00BF001001409F
:10468000000C005840160024204A0368934229D0A9
:10469000A2F54C42934227D002F58062934225D086
:1046A00002F58062934223D002F58062934221D0CA
:1046B00002F5444293421FD0A2F51C4293421DD002
:1046C00002F5806293421BD0114A93421AD108230B
:1046D00010484FF4D87202FB0300037D03B9704702
:1046E000FFF708BA0023F3E70123F1E70223EFE71E
:1046F0000323EDE70423EBE70523E9E70623E7E7D8
:104700000723E5E700231B7DFFDE00BF001001400B
:10471000000C0058401600240121FFF7B1BB00BF78
:104720002DE9F0414F684FF4D876DFF8C0808E460F
:1047300007FB06F60C46082F08EB0605056005F199
:10474000180CBEE80F00ACE80F009EE807008CE8EC
:10475000070002D86B6A022B02D90120BDE8F08164
:104760002A6A032AF9D8A96A0229F6D8E86A02282F
:10477000F3D80131DFF878C0343689005CF827704F
:1047800046446F63A469A9641549AC6351F82330AA
:104790006B64144B53F82230134A2B64002352F8F5
:1047A000201001223046EB65E963C5E91333C5E902
:1047B000153208F077FE0028CFD10146304608F0C8
:1047C000C9FE0028C9D10146304608F011FF002873
:1047D000C3D1304608F0A0FE0028BED12875BDE741
:1047E000A43B0108B03B0108C03B0108401600246F
:1047F000803B0108006808B5343007F099F80038AC
:1048000018BF012008BD00BF534B0122002047F60E
:10481000122130B4C3E97420C3E97721C3E9E02051
:10482000C3E9E3211A62DA6258621963C3F83025DA
:10483000C3F83405C3F83C25C3F84015C3F8E02697
:10484000C3F8E406C3F8EC26C3F8F016C3F89028C2
:10485000C3F89408C3F89C28C3F8A018C3F8402AEA
:10486000C3F8440AC3F84C2AC3F8501AC3F8F02B13
:10487000C3F8F40BC3F8FC2BC3F8001CC3F8A40D59
:104880003648C3F8A02DC3F8AC2DC3F8B01D02887C
:10489000837833490068334CCA804FEA104C0B725E
:1048A0003149E2802372A1F80320A4F80320637148
:1048B0004B712E4CCA800B722D492E4DE280237213
:1048C000A1F80320A4F8032063714B712A4CCA801D
:1048D0000B722A49EA8008802B7281F802C0E280BC
:1048E0002372A1F803204B71CA800B722449A1F8EE
:1048F00003204B71CA800B722249A1F803204B712F
:10490000CA800B722049088081F802C0A1F80320F8
:104910004B71CA800B721D49088081F802C0A1F852
:1049200003204B71CA800B721949088081F802C0BC
:104930001848A1F803204B71CA800B721649A0F8E1
:1049400003204371C2800372A1F803204B71CA8017
:104950000B7230BC704700BF401600246001002479
:10496000E80100240C020024000200242402002498
:1049700018020024F4010024D0010024A025002402
:1049800030020024DC0100247C250024942500242E
:104990008825002454010024480100243E4B0022B5
:1049A0000B20114610B5D3F8D84082B044F0010472
:1049B000C3F8D840D3F8D84004F001040094009C18
:1049C000D3F8D84044F00204C3F8D840D3F8D83024
:1049D00003F002030193019B01F02AF90B2001F07F
:1049E00065F900220C20114601F022F90C2001F09B
:1049F0005DF900220D20114601F01AF90D2001F099
:104A000055F900220E20114601F012F90E2001F096
:104A10004DF900220F20114601F00AF90F2001F094
:104A200045F900221020114601F002F9102001F092
:104A30003DF900223C20114601F0FAF83C2001F03B
:104A400035F900221120114601F0F2F8112001F091
:104A50002DF900223820114601F0EAF8382001F043
:104A600025F900223920114601F0E2F8392001F041
:104A70001DF900223A20114601F0DAF83A2001F03F
:104A800015F900223B20114601F0D2F83B2002B07C
:104A9000BDE8104001F00AB90044025820F01F00A0
:104AA0002031BFF34F8F002907DD064A0144C2F8C9
:104AB0005C0220300B1A002BF9DCBFF34F8FBFF3E1
:104AC0006F8F704700ED00E0704700BF08B501F040
:104AD00073F8BDE8084001F073B900BF064808B597
:104AE00003680BB102F032FB044803681BB1BDE858
:104AF000084003F0D9BA08BDC84F0024C0490024BB
:104B0000064808B503680BB102F020FB04480368AF
:104B10001BB1BDE8084003F0C7BA08BDC84F002468
:104B2000C0490024064808B503680BB102F00EFB2B
:104B3000044803681BB1BDE8084003F0B5BA08BDDE
:104B4000C84F0024C0490024364BDA6A520062D5AF
:104B50009A6A9A6A9A6A9B6A180600D500BE314B17
:104B60009B6A990600D500BE2E4B9B6ADA0600D5DB
:104B700000BE2C4B9B6A1B0700D500BE294B9B6ACD
:104B8000980700D500BE274B9B6AD90700D500BE09
:104B9000244B9B6A1A0400D500BE224B9B6A9B04DF
:104BA00000D500BE1F4B9B6AD80400D500BE1D4B2C
:104BB0009B6A190500D500BE1A4B9B6A5A0500D5A1
:104BC00000BE184B9B6A9B0500D500BE154B9B6A27
:104BD000D80500D500BE134B9B6A990100D500BED5
:104BE000104B9B6ADA0100D500BE0E4B9B6A1B037B
:104BF00000D500BE0B4B9B6A580300D500BE094B85
:104C00009B6A990300D500BE064B9B6ADA0306D463
:104C100000BE00BEFEE7DB6A9B07FAD5F8E700BEE0
:104C2000F6E700BF00ED00E000F0D8BF0A4B9B683C
:104C300003F17843B3F5003F0BD3084B986848B1B4
:104C40009868012806D09868022803D09B68032042
:104C500070470120704700BF00ED00E00000803881
:104C60002DE9F041CEB004464C2200210AA80DF0F7
:104C70002BF82022002102A80DF026F8BC220021EA
:104C80001EA80DF021F8022003F00AFF2368012B73
:104C90004FF0000354D0534A02250193C820D16A33
:104CA000514B21F00101D162D26A02F0010201925E
:104CB0009A6942F440429A619B6903F4404301932C
:104CC000019B494A93699B04FCD548490224002270
:104CD00001268B6A04274FF0080823F003032343BF
:104CE0008B62052316900AA818934FF48033109610
:104CF000179419941597CDF86880CDE91B222122CD
:104D0000CDE91344CDE90A2304F0B4FB00B1FEE77A
:104D10003F220323294602A8CDE9022300220823CB
:104D2000CDE9042340224023CDE9062340234FF45C
:104D30008062CDE9082304F0CBFE0346B8B1FEE75C
:104D4000294A04250093F0209169264B41F4404103
:104D50009161926902F440420092DA6A42F00102E3
:104D6000DA62DB6A03F001030093009BA9E72022CB
:104D70004FF4805125934FF440152B9280222D93B0
:104D80001EA83093269135914FF48071249234926D
:104D90000C223394439140F2271120921022CDF837
:104DA00084802A971F96CDE92E34CDE93B334FF40A
:104DB0008033CDE922463193002446930623CDE982
:104DC0003E4527934FF48063094C2C931E94CDE904
:104DD000281205F0D9F800B1FEE703F087FE4EB0C7
:104DE000BDE8F08100040058004802580044025811
:104DF0000F130F0370B584B0012400F08FFF4FF440
:104E000080764FF04052194B68460025ADF80040BF
:104E10000396CDE9012300F09FFF19224FF0404394
:104E200068468DF8082001938DF80F40ADF80D60AD
:104E30008DF801408DF80A5000F08EFF02230B22FE
:104E400068468DF80F508DF801304FF062538DF8A1
:104E500008200193ADF80D408DF80A4000F07CFF6A
:104E6000042000F069FF04B070BD00BF0E00010314
:104E700030B50D46044685B0D1E9000184E8030051
:104E800000F06AFEAB79A3B3FFF788FDFDF794FE4F
:104E90000AF0F0FEFFF706FA2B798BBB6B799BB11A
:104EA000BFF34F8FBFF36F8F2A4B0022C3F85022FE
:104EB000BFF34F8FBFF36F8F5A6942F400325A61CC
:104EC000BFF34F8FBFF36F8F4FF0FF3200230024EB
:104ED00000256946204802928DF80C30CDE9004546
:104EE0000BF0E8FA1C480BF04DFB0AF0F3FA05B0A2
:104EF00030BD2046FFF7B4FE2046FFF77BFFC3E737
:104F0000144C0023C4F88430BFF34F8FD4F88010C2
:104F100043F6E07EC1F34E3CC1F3C9014FEA4C1C9D
:104F20000CEA0E000B4640EA8372013BC4F8602293
:104F30005A1CF8D1ACF1200C1CF1200FF0D1BFF3BA
:104F40004F8F636943F480336361BFF34F8FBFF3C7
:104F50006F8FA3E700ED00E0AC25002404F0E8BE6D
:104F60001C4B9B6803F17842B2F5003F25D3B3F5A3
:104F7000803F20D303F16042B2F5003F1FD303F11D
:104F80005C42B2F5002F1CD303F17042B2F5902FB2
:104F900019D303F14842B2F5803F16D303F18042A2
:104FA000B2F1806F13D303F1E043B3F5000F2CBFD0
:104FB000082007207047012070470020704702201A
:104FC0007047032070470420704705207047062073
:104FD000704700BF00ED00E003480023034A044986
:104FE00003600CF0F1BC00BFAC25002400000024DD
:104FF000C94A000810B4204C0022204B83B0D4F8DA
:1050000088101F4841F47001C4F8881019681D4CBD
:1050100041F0010119601A61196808401A491860C5
:105020009A61DA611A629A62DA621A635A639A635F
:10503000DA631A645A64186820F4802018601A66CB
:10504000D3F8DC2042F06042C3F8DC20D3F8DC3037
:105050000193019B23681940B1F1005F03D20B4B10
:105060000122C3F80821044B4FF000629A6003B09C
:105070005DF8044B704700BF00ED00E000440258AB
:105080007FEDF6EA0010005C0000FFFF0080005199
:10509000704700BF0020704770B50446074E0D46AC
:1050A0003046214609F02CFD304609F04BFD044BFB
:1050B000204629461B689847002070BD70080024D0
:1050C000B045002470B50446074E0D4630462146D3
:1050D00009F016FD304609F035FD044B20462946FF
:1050E0001B689847002070BD0C0B0024B4450024B9
:1050F00000220949094808B509F0F8FC08490748A1
:1051000009F0FEFC074B1A680AB1002008BD064AE8
:1051100000201A6008BD00BFB035002470080024CC
:10512000B0250024B0450024915000080022094910
:10513000094808B509F0DAFC0849074809F0E0FC1D
:10514000074B1A680AB1002008BD064A00201A6001
:1051500008BD00BFB03D00240C0B0024B02D00247E
:10516000B44500249150000820280AD0212806D1F7
:10517000094B18689A889B7908608A808B71002097
:105180007047054B0868B1F804C08A7918600020A0
:10519000A3F804C09A7170476402002420280AD042
:1051A000212806D1094B18689A889B7908608A8063
:1051B0008B7100207047054B0868B1F804C08A79EC
:1051C00018600020A3F804C09A7170476C02002494
:1051D0000020704710B5094CD4F89032D3F814323F
:1051E0000BB1012010BD0A460146204609F07EFCA5
:1051F0002046BDE8104009F08BBC00BF70080024B9
:105200004B4A036830B593428BB04FF00004CDE9B0
:105210000444CDE90644089404D0464A934249D058
:105220000BB030BD444D4FF4C0524448D5F8E03087
:1052300043F00103C5F8E030D5F8E03003F0010396
:1052400000930223009904A9CDE904230A230893BB
:1052500001F06AFD4FF40072002304A93748069458
:10526000CDE9042301F060FDD5F8D830224621466F
:1052700043F000636220C5F8D830D5F8D83003F089
:1052800000630193019B00F0D3FC622000F00EFD4F
:1052900022462146632000F0CBFC632000F006FD8F
:1052A00022462146652000F0C3FC652000F0FEFC8C
:1052B0000BB030BD204D4FF4404204A9D5F8E0308A
:1052C00043F00203C5F8E030D5F8E03003F0020304
:1052D0000293022302981A48CDE904230C23089371
:1052E00001F022FDD5F8D830224621464A2043F06D
:1052F0000073C5F8D830D5F8D83003F000730393A5
:10530000039B00F095FC4A2000F0D0FC2246214689
:105310004B2000F08DFC4B2000F0C8FC22462146BB
:105320004D2000F085FC4D2000F0C0FC0BB030BDDE
:1053300000000840000004400044025800000258E9
:105340000004025800F57171D0F8040409F066BC3D
:10535000C1EBC10300EB8303D0F80404D3F80822A7
:1053600009F08ABCC1EBC10300EB8303D0F804044D
:105370009A6C09F0BFBC00BFD0F8040409F05EBD10
:10538000C16810B5044619B1022900D0FEE7012119
:10539000D4F8040409F03CFDD4F80404BDE810403E
:1053A00009F00EBD10B50446D0F8040409F034FD30
:1053B0002268D2F8003E43F00103C2F8003E236A9F
:1053C00023B1034A136943F00603136110BD00BF04
:1053D00000ED00E0D0F8040409F028BDD0F8040482
:1053E00009F03CBDD0F8040409F036BDD0F804043F
:1053F00009F036BDD0F8040409F034BD70B5067864
:1054000004461EB1012E30D0002070BD304D09235E
:10541000304AC5F80404C0F8985228462E612E631D
:10542000C5E9002302230222EB600023C5E906231D
:1054300000220023C5E9082301220123C5E90A232C
:1054400002F07AFD00B1FEE78021284603F008FB58
:1054500031464022284603F0D9FA8022012128460D
:1054600003F0D4FA2678012ECED11B4D09221B4B16
:1054700000216A6002222B600223C5F804442846FA
:10548000EB600023C4F898522961C5E90623002285
:105490000023C5E90823C5E90C2301220023C5E93F
:1054A0000A2302F049FD044600B1FEE74FF4007103
:1054B000284603F0D5FA21468022284603F0A6FAB2
:1054C0004FF4BA723146284603F0A0FA9CE700BFB9
:1054D000B845002400000840C049002400000440F2
:1054E000D0F8980208B502F0BDFD032802D8024B9F
:1054F000185C08BD022008BDDC3B01089446D0F8CA
:1055000098021A4608B5634603F032F9032802D818
:10551000024B185C08BD022008BD00BFDC3B01083F
:10552000D0F8980208B503F061F9032802D8024BBD
:10553000185C08BD022008BDDC3B0108D0F89802C9
:1055400008B503F0E3F9032802D8024B185C08BD44
:10555000022008BDDC3B0108D0F8980208B503F032
:1055600019FA032802D8024B185C08BD022008BDB6
:10557000DC3B01080A06D0F8983206D4C1EBC10121
:1055800003EB810191F8FE01704701F07F01C1EB4F
:10559000C10103EB810191F83E007047D0F89802F9
:1055A00008B503F0CFF8032802D8024B185C08BDF9
:1055B000022008BDDC3B0108D0F8980208B503F0D2
:1055C0007DF9032802D8024B185C08BD022008BDF3
:1055D000DC3B0108D0F8980208B503F03DF9032838
:1055E00002D8024B185C08BD022008BDDC3B010854
:1055F000D0F8980203F058B9122301480B80704785
:10560000C0020024122301480B807047AC02002422
:10561000042301480B807047D402002410B5044CC9
:105620000A460448214609F09DFE204610BD00BFF1
:10563000C84D0024E03B010810B5044C0A4604485C
:10564000214609F08FFE204610BD00BFC84D002442
:10565000F03B010810B5044C0A460448214609F005
:1056600081FE204610BD00BFC84D0024043C010847
:1056700010B5044C0A460448214609F073FE204642
:1056800010BD00BFC84D0024103C010810B5044CEB
:105690000A460448214609F065FE204610BD00BFB9
:1056A000C84D0024203C0108042301480B807047AA
:1056B000D402002410B5044C0A460448214609F0DF
:1056C00051FE204610BD00BFC84D0024E03B01083C
:1056D000464A4FF01A0CD2F80008D2F80838A1F860
:1056E00000C0C31801D142487047180FB3F1204FD2
:1056F000D2F804184FF0000C3D4A2CBF3730303040
:1057000082F803C04FF0000C9070C3F3036082F87E
:1057100005C04FF0000C092882F807C04FF0000CBC
:105720008CBF3730303082F809C04FF0000C107158
:10573000C3F3035082F80BC04FF0000C092882F825
:105740000DC08CBF373030309071C3F3034009284F
:105750008CBF373030301072C3F3033009288CBF50
:10576000373030309072C3F3032009288CBF3730B4
:1057700030301073C3F3031003F00F0309288CBFFC
:1057800037303030092B90734FF0000094BF303326
:105790003733B1F1204FD07313744FEA11734FF0C8
:1057A00000002CBF37333033507400209374C1F3A2
:1057B0000363D0740020092B50754FF000008CBF9C
:1057C00037333033D0751375C1F303530848092BB1
:1057D0008CBF373330339375C1F30343092B94BF28
:1057E00030333733137600235376704700E0F11FD0
:1057F000D8020024464A4FF01A0CD2F80008D2F81A
:105800000838A1F800C0C31801D142487047180FEA
:10581000B3F1204FD2F804184FF0000C3D4A2CBFD2
:105820003730303082F803C04FF0000C9070C3F373
:10583000036082F805C04FF0000C092882F807C009
:105840004FF0000C8CBF3730303082F809C04FF079
:10585000000C1071C3F3035082F80BC04FF0000C22
:10586000092882F80DC08CBF373030309071C3F3F7
:10587000034009288CBF373030301072C3F3033037
:1058800009288CBF373030309072C3F303200928C9
:105890008CBF373030301073C3F3031003F00F03A5
:1058A00009288CBF37303030092B90734FF000003F
:1058B00094BF30333733B1F1204FD07313744FEAB4
:1058C00011734FF000002CBF373330335074002079
:1058D0009374C1F30363D0740020092B50754FF00B
:1058E00000008CBF37333033D0751375C1F30353C9
:1058F0000848092B8CBF373330339375C1F303430A
:10590000092B94BF30333733137600235376704717
:1059100000E0F11FD802002410B5044C0A460448E8
:10592000214609F01FFD204610BD00BFC84D0024D0
:10593000103C010810B5044C0A460448214609F001
:1059400011FD204610BD00BFC84D0024043C0108D5
:10595000D0F8C00209F078BDD0F8C00209F08CBDC3
:10596000D0F8C00209F094BD704700BFD0F8C00263
:1059700009F07ABDD0F8C00209F07ABDD0F8D003A2
:1059800008B501F0A3FF032802D8024B185C08BD3C
:10599000022008BD343C0108024B027853F8220073
:1059A000704700BF583C0108024B427833F81200A0
:1059B000704700BF383C01088CB00A2814D8DFE8D3
:1059C00000F01523313F4D5B6977859306004D4B01
:1059D000D3F8E02042F48062C3F8E020D3F8E0304E
:1059E00003F480630B930B9B0CB07047454BD3F8CB
:1059F000E02042F00102C3F8E020D3F8E03003F0E9
:105A000001030193019BEFE73E4BD3F8E02042F006
:105A10000202C3F8E020D3F8E03003F0020302935F
:105A2000029BE1E7374BD3F8E02042F00402C3F8D1
:105A3000E020D3F8E03003F004030393039BD3E7A3
:105A4000304BD3F8E02042F00802C3F8E020D3F84E
:105A5000E03003F008030493049BC5E7294BD3F817
:105A6000E02042F01002C3F8E020D3F8E03003F069
:105A700010030593059BB7E7224BD3F8E02042F0D3
:105A80002002C3F8E020D3F8E03003F020030693AF
:105A9000069BA9E71B4BD3F8E02042F04002C3F875
:105AA000E020D3F8E03003F040030793079B9BE727
:105AB000144BD3F8E02042F08002C3F8E020D3F882
:105AC000E03003F080030893089B8DE70D4BD3F87B
:105AD000E02042F48072C3F8E020D3F8E03003F411
